:03000000020006F5
:03005F0002000399
:0300030002006296
:10006200D29012006EC29012006E80F47E007F0069
:10007200C3EE9464EF64809480501D7C007D00C3C5
:10008200EC9464ED6480948050070CBC00F10D8008
:09009200EE0EBE00DB0F80D82247
:06003500E478FFF6D8FD9F
:100013007900E94400601B7A0090009F780175A085
:1000230000E493F2A308B8000205A0D9F4DAF2754C
:02003300A0FF2C
:10003B007800E84400600A790175A000E4F309D860
:10004B00FC7800E84400600C7900900001E4F0A318
:04005B00D8FCD9FAFA
:0D00060075810712009BE582600302000374
:04009B007582002248
:00000001FF
