:03000000020006F5
:03005F0002000399
:0300030002007F79
:10006200AE82AF83EE4F60147C647D001CBCFF0146
:100072001DEC4D70F71EBEFF011F80E822C2819069
:0F00820003E8120062D2819003E812006280EE60
:06003500E478FFF6D8FD9F
:100013007900E94400601B7A00900095780175A08F
:1000230000E493F2A308B8000205A0D9F4DAF2754C
:02003300A0FF2C
:10003B007800E84400600A790175A000E4F309D860
:10004B00FC7800E84400600C7900900001E4F0A318
:04005B00D8FCD9FAFA
:0D000600758107120091E58260030200037E
:040091007582002252
:00000001FF
